:0C0189000A084079243019120278001096
:08017600F8E6F5807FE87E0346
:0B017E00EF1FAC0670011E4C70F62253
:10011A00D2A1D2A0E4F514F515AE14AF157C007D7A
:10012A000A12008F8F13AE14AF157C007D0A1200DD
:10013A008F8D12E4F516C2A074082513120176D227
:10014A00A0C2A174082512120176D2A10516D3E520
:10015A00166480948A40DF0515E51570020514D3EC
:0C016A009463E5146480948040AF80A88A
:03000000020003F8
:0C000300787FE4F6D8FD75811602004AF3
:10008F00C2D5EC30E709B2D5E4C39DFDE49CFCEE8C
:10009F0030E715B2D5E4C39FFFE49EFE1200C5C33F
:1000AF00E49DFDE49CFC80031200C530D507C3E43A
:0600BF009FFFE49EFE22FB
:10000F0002011AE493A3F8E493A34003F68001F2EC
:10001F0008DFF48029E493A3F85407240CC8C333F2
:10002F00C4540F4420C8834004F456800146F6DFC1
:10003F00E4800B0102040810204080900189E47EC7
:10004F00019360BCA3FF543F30E509541FFEE493B6
:10005F00A360010ECF54C025E060A840B8E493A37D
:10006F00FAE493A3F8E493A3C8C582C8CAC583CAA8
:10007F00F0A3C8C582C8CAC583CADFE9DEE780BE60
:010195000069
:1000C500BC000BBE0029EF8DF084FFADF022E4CC1F
:1000D500F875F008EF2FFFEE33FEEC33FCEE9DECE8
:1000E500984005FCEE9DFE0FD5F0E9E4CEFD22ED2E
:1000F500F8F5F0EE8420D21CFEADF075F008EF2F78
:10010500FFED33FD4007985006D5F0F222C398FD68
:050115000FD5F0EA2205
:00000001FF
