:10059E00434F554E54455220555345203830353132
:0D05AE0000434F554E5445523D002564005A
:0C05DB00022200000224000002260000A2
:10047900758951D28ED28C12055AE4FDFF1205CC32
:100489007BFF7A05799E1204E8E4FD7F011205CC11
:100499007BFF7A0579AF1204E8AF8B7524008F25AD
:1004A900AF8D7526008F27E5277F00FEEF2525F5FF
:1004B90023E5243EF522750BFF750C05750DB8F57E
:1004C9000E85230F7B007A00792812005F7D097F52
:0F04D900011205CC7B007A0079281204E880BA62
:10057D00E4FDFCC3ED9FEC9E5016758CFC758A183E
:10058D00D28CC28D308DFDC28C0DBD00010C80E36F
:01059D00223B
:070537007E0012057D7F30FC
:10053E00C2A5C2A48F80C2A6D2A6EFD39402500445
:0C054E007F0380027F027E0012057D22E8
:10055A007F3012053E7F051205377F011205377F6E
:10056A003812053E7F0112053E7F0E12053E7F06B8
:03057A0002053E39
:0F05CC00EF70047F8080027FC0EF2DFF02053E9D
:1005BB00C2A5D2A48F80C2A6D2A67F017E0002055F
:0105CB007DB2
:0604E8008B088A09890A55
:1004EE00E4F50BAB08AA09A90A850B8275830012E5
:1004FE00035FFFFD3395E04D60071205BB050B80D2
:01050E00E20A
:01050F0022C9
:030000000203ED0B
:0C03ED00787FE4F6D8FD758131020434FD
:10035F00BB010CE58229F582E5833AF583E0225053
:10036F0006E92582F8E622BBFE06E92582F8E2229D
:0D037F00E58229F582E5833AF583E49322B7
:10000300E517240BF8E60517227808300702780B6A
:10001300E475F0011203B702038C2000EB7F2ED2AC
:10002300008018EF540F2490D43440D4FF30040BD5
:10003300EF24BFB41A0050032461FFE518600215D2
:1000430018051BE51B7002051A30070D7808E475C7
:10005300F0011203B7EF0203A50205107403D207E0
:100063008003E4C207F5178B088A09890AE4F518A7
:10007300F51AF51BE51860077F2012003E80F57521
:1000830019FFC201C200C202C203C205C206C208EE
:1000930012000CFF700D3007057F0012004FAF1BDD
:1000A300AE1A22B4255FC2D5C20412000CFF24D0BD
:1000B300B40A00501A75F00A781830D50508B6FF4F
:1000C3000106C6A426F620D5047002D20380D924E3
:1000D300CFB41A00EF5004C2E5D20402024FD2019A
:1000E30080C6D20080C0D20280BCD2D580BAD205ED
:1000F30080B47F2012003E2002077401B51800402F
:10010300F1120003FF12003E020077D208D20680EC
:1001130095120003FB120003FA120003F94A4B7015
:100123000679207A037BFF20022EE518602A7E00E1
:100133008E8275830012035F60060EEE651970F000
:10014300C2D5EBC0E0EAC0E0E9C0E0EE120296D00F
:10015300E0F9D0E0FAD0E0FB12038CFF60AAEBC019
:10016300E0EAC0E0E9C0E012003ED0E02401F9D0AB
:10017300E03400FAD0E0FBE5190460DCD519D9803E
:10018300877BFF7A027992D202809C791080027970
:1001930008C206C2088008D2D5790A8004790AC247
:1001A300D5E519047002F519E4FAFDFEFF12000308
:1001B300FC7B08200113120003FD7B1030000A12A0
:1001C3000003FE120003FF7B20EC3382D592D5504F
:1001D30013C3E43000069FFFE49EFEE42001039D69
:1001E300FDE49CFCE4CBF8C201EC700CCFCECDCC8B
:1001F300E824F8F870F38017C3EF33FFEE33FEED16
:1002030033FDEC33FCEB33FB994002FB0FD8E9EBF6
:10021300300105F8D0E0C448B201C0E00AEC4D4E0D
:100223004F78207B0070C2EAB5190040BCC0E012D1
:100233000298D0F0D0E0200104C4C0E0C4B201C0F1
:10024300F0120027D0F0D5F0EB0200771203C701BC
:100253001453018E5800E54C00E14201924F019A7C
:0F02630044019A4900FA4301A0550184460184E1
:100272004501844703405000E92D00ED2E01102B6B
:1002820000F123010E2003292A00A94800000108D9
:100292003F3F3F00790AA2D5200314300509B91067
:1002A200020404B9080104A2D52006025001042068
:1002B20002689202B518005034C0E07F2030031962
:1002C2007F30A20272067205500F1202EFC202C202
:1002D20006C205C2087F30800F300503E9C0E01274
:1002E200003E300503D0E0F9D0E0B518CC30051758
:1002F2007F30B9100C12003E7F583004077F78809F
:1003020003B9080312003E3002057F2D02003E7F32
:10031200202008F87F2B2006F322920280CF286E3D
:10032200756C6C2900D2011200033001F8C2017809
:100332001830D50108F60200A92D50434958120081
:10034200032403B405004001E490033B9312002F01
:0D035200743A12002FD20375180402018EB8
:1003F900020479E493A3F8E493A34003F68001F29D
:1004090008DFF48029E493A3F85407240CC8C33304
:10041900C4540F4420C8834004F456800146F6DFD3
:10042900E4800B01020408102040809005DBE47E83
:10043900019360BCA3FF543F30E509541FFEE493C8
:10044900A360010ECF54C025E060A840B8E493A38F
:10045900FAE493A3F8E493A3C8C582C8CAC583CABA
:10046900F0A3C8C582C8CAC583CADFE9DEE780BE72
:0105E7000013
:10038C00BB010689828A83E0225002E722BBFE026F
:09039C00E32289828A83E49322A2
:1003A500BB010689828A83F0225002F722BBFE0137
:0203B500F32231
:1003B700FAE6FB0808E6F925F0F618E6CA3AF62247
:1003C700D083D082F8E4937012740193700DA3A3C5
:1003D70093F8740193F5828883E4737402936860D9
:0603E700EFA3A3A380DFD9
:10051000EFB40A07740D12051B740A309811A899DC
:10052000B8130CC2983098FDA899C298B811F6304B
:0705300099FDC299F5992223
:00000001FF
