:1000A0005765277265204465767A6F6E6521005723
:1000B00065277265206865726520666F7220796FAA
:0500C000752E2E2E003C
:100003007589011200E8E4FDFF12013D7F147E00B3
:1000130012010B7BFF7A0079A01200787FE87E0340
:1000230012010BE4FD7F0112013D7BFF7A0079AFE2
:100033001200787FD07E0712010B7F181200CC7F4D
:080043002C7E0112010B80F27A
:10010B00E4FDFCC3ED9FEC9E5016758CFC758A18B4
:10011B00D28CC28D308DFDC28C0DBD00010C80E3E5
:01012B0022B1
:0700C5007E0012010B7F30E9
:1000CC00C2A5C2A48F80C2A6D2A6EFD394025004BC
:0C00DC007F0380027F027E0012010B22D5
:1000E8007F301200CC7F051200C57F011200C57F4A
:1000F800381200CC7F011200CC7F0E1200CC7F0694
:030108000200CC26
:0F013D00EF70047F8080027FC0EF2DFF0200CCA7
:10012C00C2A5D2A48F80C2A6D2A67F017E000201F6
:01013C000BB7
:060078008B088A09890AC9
:10007E00E4F50BAB08AA09A90A850B827583001259
:10008E00004BFFFD3395E04D600712012C050B80F0
:01009E00E27F
:01009F00223E
:0300000002014CAE
:0C014C00787FE4F6D8FD75810B020003FB
:10004B00BB010CE58229F582E5833AF583E022506A
:10005B0006E92582F8E622BBFE06E92582F8E222B4
:0D006B00E58229F582E5833AF583E49322CE
:00000001FF
